{
  "contractName": "Trustful",
  "abi": [
    {
      "anonymous": false,
      "inputs": [
        {
          "indexed": true,
          "internalType": "uint256",
          "name": "attributeID",
          "type": "uint256"
        },
        {
          "indexed": true,
          "internalType": "address",
          "name": "owner",
          "type": "address"
        },
        {
          "indexed": false,
          "internalType": "string",
          "name": "attributeType",
          "type": "string"
        },
        {
          "indexed": false,
          "internalType": "bool",
          "name": "hasProof",
          "type": "bool"
        },
        {
          "indexed": false,
          "internalType": "string",
          "name": "identifier",
          "type": "string"
        },
        {
          "indexed": false,
          "internalType": "string",
          "name": "data",
          "type": "string"
        },
        {
          "indexed": false,
          "internalType": "string",
          "name": "datahash",
          "type": "string"
        }
      ],
      "name": "AttributeAdded",
      "type": "event"
    },
    {
      "anonymous": false,
      "inputs": [
        {
          "indexed": true,
          "internalType": "uint256",
          "name": "signatureID",
          "type": "uint256"
        },
        {
          "indexed": true,
          "internalType": "address",
          "name": "signer",
          "type": "address"
        },
        {
          "indexed": true,
          "internalType": "uint256",
          "name": "attributeID",
          "type": "uint256"
        },
        {
          "indexed": false,
          "internalType": "uint256",
          "name": "expiry",
          "type": "uint256"
        }
      ],
      "name": "AttributeSigned",
      "type": "event"
    },
    {
      "anonymous": false,
      "inputs": [
        {
          "indexed": true,
          "internalType": "uint256",
          "name": "revocationID",
          "type": "uint256"
        },
        {
          "indexed": true,
          "internalType": "uint256",
          "name": "signatureID",
          "type": "uint256"
        }
      ],
      "name": "SignatureRevoked",
      "type": "event"
    },
    {
      "anonymous": false,
      "inputs": [
        {
          "indexed": false,
          "internalType": "uint256",
          "name": "randomInt",
          "type": "uint256"
        },
        {
          "indexed": false,
          "internalType": "uint256",
          "name": "square",
          "type": "uint256"
        }
      ],
      "name": "Successful",
      "type": "event"
    },
    {
      "constant": true,
      "inputs": [
        {
          "internalType": "string",
          "name": "",
          "type": "string"
        }
      ],
      "name": "AttributeByIdentier",
      "outputs": [
        {
          "internalType": "uint256",
          "name": "",
          "type": "uint256"
        }
      ],
      "payable": false,
      "stateMutability": "view",
      "type": "function"
    },
    {
      "constant": true,
      "inputs": [
        {
          "internalType": "string",
          "name": "",
          "type": "string"
        },
        {
          "internalType": "uint256",
          "name": "",
          "type": "uint256"
        }
      ],
      "name": "AttributeTypes",
      "outputs": [
        {
          "internalType": "uint256",
          "name": "",
          "type": "uint256"
        }
      ],
      "payable": false,
      "stateMutability": "view",
      "type": "function"
    },
    {
      "constant": true,
      "inputs": [
        {
          "internalType": "uint256",
          "name": "",
          "type": "uint256"
        }
      ],
      "name": "attributes",
      "outputs": [
        {
          "internalType": "address",
          "name": "owner",
          "type": "address"
        },
        {
          "internalType": "string",
          "name": "attributeType",
          "type": "string"
        },
        {
          "internalType": "bool",
          "name": "hasProof",
          "type": "bool"
        },
        {
          "internalType": "string",
          "name": "identifier",
          "type": "string"
        },
        {
          "internalType": "string",
          "name": "data",
          "type": "string"
        },
        {
          "internalType": "string",
          "name": "datahash",
          "type": "string"
        }
      ],
      "payable": false,
      "stateMutability": "view",
      "type": "function"
    },
    {
      "constant": true,
      "inputs": [
        {
          "internalType": "uint256",
          "name": "",
          "type": "uint256"
        }
      ],
      "name": "revocations",
      "outputs": [
        {
          "internalType": "uint256",
          "name": "signatureID",
          "type": "uint256"
        }
      ],
      "payable": false,
      "stateMutability": "view",
      "type": "function"
    },
    {
      "constant": true,
      "inputs": [
        {
          "internalType": "uint256",
          "name": "",
          "type": "uint256"
        }
      ],
      "name": "signatures",
      "outputs": [
        {
          "internalType": "address",
          "name": "signer",
          "type": "address"
        },
        {
          "internalType": "uint256",
          "name": "attributeID",
          "type": "uint256"
        },
        {
          "internalType": "uint256",
          "name": "expiry",
          "type": "uint256"
        }
      ],
      "payable": false,
      "stateMutability": "view",
      "type": "function"
    },
    {
      "constant": true,
      "inputs": [
        {
          "internalType": "uint256",
          "name": "",
          "type": "uint256"
        },
        {
          "internalType": "uint256",
          "name": "",
          "type": "uint256"
        }
      ],
      "name": "signaturesOfAttribute",
      "outputs": [
        {
          "internalType": "uint256",
          "name": "",
          "type": "uint256"
        }
      ],
      "payable": false,
      "stateMutability": "view",
      "type": "function"
    },
    {
      "constant": true,
      "inputs": [],
      "name": "test",
      "outputs": [
        {
          "internalType": "uint256",
          "name": "",
          "type": "uint256"
        }
      ],
      "payable": false,
      "stateMutability": "view",
      "type": "function"
    },
    {
      "constant": true,
      "inputs": [
        {
          "internalType": "uint256",
          "name": "attributeID",
          "type": "uint256"
        }
      ],
      "name": "getAttributeByID",
      "outputs": [
        {
          "internalType": "address",
          "name": "",
          "type": "address"
        },
        {
          "internalType": "string",
          "name": "",
          "type": "string"
        },
        {
          "internalType": "bool",
          "name": "",
          "type": "bool"
        },
        {
          "internalType": "string",
          "name": "",
          "type": "string"
        },
        {
          "internalType": "string",
          "name": "",
          "type": "string"
        },
        {
          "internalType": "string",
          "name": "",
          "type": "string"
        }
      ],
      "payable": false,
      "stateMutability": "view",
      "type": "function"
    },
    {
      "constant": true,
      "inputs": [
        {
          "internalType": "string",
          "name": "attributeType",
          "type": "string"
        }
      ],
      "name": "getAttributesByType",
      "outputs": [
        {
          "internalType": "uint256[]",
          "name": "",
          "type": "uint256[]"
        }
      ],
      "payable": false,
      "stateMutability": "view",
      "type": "function"
    },
    {
      "constant": true,
      "inputs": [
        {
          "internalType": "string",
          "name": "identifier",
          "type": "string"
        }
      ],
      "name": "getAttributesByIdentifier",
      "outputs": [
        {
          "internalType": "uint256",
          "name": "",
          "type": "uint256"
        }
      ],
      "payable": false,
      "stateMutability": "view",
      "type": "function"
    },
    {
      "constant": true,
      "inputs": [
        {
          "internalType": "uint256",
          "name": "attributeID",
          "type": "uint256"
        }
      ],
      "name": "getSignaturesOfAttribute",
      "outputs": [
        {
          "internalType": "uint256[]",
          "name": "",
          "type": "uint256[]"
        }
      ],
      "payable": false,
      "stateMutability": "view",
      "type": "function"
    },
    {
      "constant": true,
      "inputs": [
        {
          "internalType": "uint256",
          "name": "signatureID",
          "type": "uint256"
        }
      ],
      "name": "getSignature",
      "outputs": [
        {
          "internalType": "address",
          "name": "",
          "type": "address"
        },
        {
          "internalType": "uint256",
          "name": "",
          "type": "uint256"
        }
      ],
      "payable": false,
      "stateMutability": "view",
      "type": "function"
    },
    {
      "constant": true,
      "inputs": [],
      "name": "getAllRevocations",
      "outputs": [
        {
          "internalType": "uint256[]",
          "name": "",
          "type": "uint256[]"
        }
      ],
      "payable": false,
      "stateMutability": "view",
      "type": "function"
    },
    {
      "constant": false,
      "inputs": [
        {
          "internalType": "string",
          "name": "attributeType",
          "type": "string"
        },
        {
          "internalType": "bool",
          "name": "hasProof",
          "type": "bool"
        },
        {
          "internalType": "string",
          "name": "identifier",
          "type": "string"
        },
        {
          "internalType": "string",
          "name": "data",
          "type": "string"
        },
        {
          "internalType": "string",
          "name": "datahash",
          "type": "string"
        }
      ],
      "name": "addAttribute",
      "outputs": [
        {
          "internalType": "uint256",
          "name": "attributeID",
          "type": "uint256"
        }
      ],
      "payable": false,
      "stateMutability": "nonpayable",
      "type": "function"
    },
    {
      "constant": false,
      "inputs": [
        {
          "internalType": "uint256",
          "name": "attributeID",
          "type": "uint256"
        },
        {
          "internalType": "uint256",
          "name": "expiry",
          "type": "uint256"
        }
      ],
      "name": "signAttribute",
      "outputs": [
        {
          "internalType": "uint256",
          "name": "signatureID",
          "type": "uint256"
        }
      ],
      "payable": false,
      "stateMutability": "nonpayable",
      "type": "function"
    },
    {
      "constant": false,
      "inputs": [
        {
          "internalType": "uint256",
          "name": "signatureID",
          "type": "uint256"
        }
      ],
      "name": "revokeSignature",
      "outputs": [
        {
          "internalType": "uint256",
          "name": "revocationID",
          "type": "uint256"
        }
      ],
      "payable": false,
      "stateMutability": "nonpayable",
      "type": "function"
    },
    {
      "constant": false,
      "inputs": [
        {
          "internalType": "uint256",
          "name": "randomInt",
          "type": "uint256"
        }
      ],
      "name": "testFunction",
      "outputs": [
        {
          "internalType": "uint256",
          "name": "square",
          "type": "uint256"
        }
      ],
      "payable": false,
      "stateMutability": "nonpayable",
      "type": "function"
    }
  ],
  "bytecode": "0x60806040526104d260065534801561001657600080fd5b50612466806100266000396000f3fe608060405234801561001057600080fd5b506004361061010b5760003560e01c806363da9cf8116100a2578063e1e9fd3211610071578063e1e9fd3214610aaa578063e5039e0e14610b79578063ea756c3614610e19578063ed0c804914610e78578063f8a8fd6d14610eba5761010b565b806363da9cf8146107365780638be1019414610782578063d05dcc6a146107fe578063e13dc54014610a275761010b565b806330410b0b116100de57806330410b0b1461050a578063350c530b146105d9578063368159b11461061b5780633da1f79a146106f45761010b565b806302a569e61461011057806302d0b9ba146101855780630f5abc94146103ae5780632d0a075c146103fa575b600080fd5b61013c6004803603602081101561012657600080fd5b8101908080359060200190929190505050610ed8565b604051808373ffffffffffffffffffffffffffffffffffffffff1673ffffffffffffffffffffffffffffffffffffffff1681526020018281526020019250505060405180910390f35b6101b16004803603602081101561019b57600080fd5b8101908080359060200190929190505050610fbc565b604051808773ffffffffffffffffffffffffffffffffffffffff1673ffffffffffffffffffffffffffffffffffffffff168152602001806020018615151515815260200180602001806020018060200185810385528a818151815260200191508051906020019080838360005b8381101561023957808201518184015260208101905061021e565b50505050905090810190601f1680156102665780820380516001836020036101000a031916815260200191505b50858103845288818151815260200191508051906020019080838360005b8381101561029f578082015181840152602081019050610284565b50505050905090810190601f1680156102cc5780820380516001836020036101000a031916815260200191505b50858103835287818151815260200191508051906020019080838360005b838110156103055780820151818401526020810190506102ea565b50505050905090810190601f1680156103325780820380516001836020036101000a031916815260200191505b50858103825286818151815260200191508051906020019080838360005b8381101561036b578082015181840152602081019050610350565b50505050905090810190601f1680156103985780820380516001836020036101000a031916815260200191505b509a505050505050505050505060405180910390f35b6103e4600480360360408110156103c457600080fd5b8101908080359060200190929190803590602001909291905050506113a9565b6040518082815260200191505060405180910390f35b6104b36004803603602081101561041057600080fd5b810190808035906020019064010000000081111561042d57600080fd5b82018360208201111561043f57600080fd5b8035906020019184600183028401116401000000008311171561046157600080fd5b91908080601f016020809104026020016040519081016040528093929190818152602001838380828437600081840152601f19601f8201169050808301925050505050505091929192905050506113d7565b6040518080602001828103825283818151815260200191508051906020019060200280838360005b838110156104f65780820151818401526020810190506104db565b505050509050019250505060405180910390f35b6105c36004803603602081101561052057600080fd5b810190808035906020019064010000000081111561053d57600080fd5b82018360208201111561054f57600080fd5b8035906020019184600183028401116401000000008311171561057157600080fd5b91908080601f016020809104026020016040519081016040528093929190818152602001838380828437600081840152601f19601f820116905080830192505050505050509192919290505050611498565b6040518082815260200191505060405180910390f35b610605600480360360208110156105ef57600080fd5b81019080803590602001909291905050506114c6565b6040518082815260200191505060405180910390f35b6106de6004803603604081101561063157600080fd5b810190808035906020019064010000000081111561064e57600080fd5b82018360208201111561066057600080fd5b8035906020019184600183028401116401000000008311171561068257600080fd5b91908080601f016020809104026020016040519081016040528093929190818152602001838380828437600081840152601f19601f82011690508083019250505050505050919291929080359060200190929190505050611512565b6040518082815260200191505060405180910390f35b6107206004803603602081101561070a57600080fd5b8101908080359060200190929190505050611556565b6040518082815260200191505060405180910390f35b61076c6004803603604081101561074c57600080fd5b8101908080359060200190929190803590602001909291905050506116b3565b6040518082815260200191505060405180910390f35b6107ae6004803603602081101561079857600080fd5b810190808035906020019092919050505061184c565b604051808473ffffffffffffffffffffffffffffffffffffffff1673ffffffffffffffffffffffffffffffffffffffff168152602001838152602001828152602001935050505060405180910390f35b61082a6004803603602081101561081457600080fd5b81019080803590602001909291905050506118a3565b604051808773ffffffffffffffffffffffffffffffffffffffff1673ffffffffffffffffffffffffffffffffffffffff168152602001806020018615151515815260200180602001806020018060200185810385528a818151815260200191508051906020019080838360005b838110156108b2578082015181840152602081019050610897565b50505050905090810190601f1680156108df5780820380516001836020036101000a031916815260200191505b50858103845288818151815260200191508051906020019080838360005b838110156109185780820151818401526020810190506108fd565b50505050905090810190601f1680156109455780820380516001836020036101000a031916815260200191505b50858103835287818151815260200191508051906020019080838360005b8381101561097e578082015181840152602081019050610963565b50505050905090810190601f1680156109ab5780820380516001836020036101000a031916815260200191505b50858103825286818151815260200191508051906020019080838360005b838110156109e45780820151818401526020810190506109c9565b50505050905090810190601f168015610a115780820380516001836020036101000a031916815260200191505b509a505050505050505050505060405180910390f35b610a5360048036036020811015610a3d57600080fd5b8101908080359060200190929190505050611b79565b6040518080602001828103825283818151815260200191508051906020019060200280838360005b83811015610a96578082015181840152602081019050610a7b565b505050509050019250505060405180910390f35b610b6360048036036020811015610ac057600080fd5b8101908080359060200190640100000000811115610add57600080fd5b820183602082011115610aef57600080fd5b80359060200191846001830284011164010000000083111715610b1157600080fd5b91908080601f016020809104026020016040519081016040528093929190818152602001838380828437600081840152601f19601f820116905080830192505050505050509192919290505050611c5e565b6040518082815260200191505060405180910390f35b610e03600480360360a0811015610b8f57600080fd5b8101908080359060200190640100000000811115610bac57600080fd5b820183602082011115610bbe57600080fd5b80359060200191846001830284011164010000000083111715610be057600080fd5b91908080601f016020809104026020016040519081016040528093929190818152602001838380828437600081840152601f19601f82011690508083019250505050505050919291929080351515906020019092919080359060200190640100000000811115610c4f57600080fd5b820183602082011115610c6157600080fd5b80359060200191846001830284011164010000000083111715610c8357600080fd5b91908080601f016020809104026020016040519081016040528093929190818152602001838380828437600081840152601f19601f82011690508083019250505050505050919291929080359060200190640100000000811115610ce657600080fd5b820183602082011115610cf857600080fd5b80359060200191846001830284011164010000000083111715610d1a57600080fd5b91908080601f016020809104026020016040519081016040528093929190818152602001838380828437600081840152601f19601f82011690508083019250505050505050919291929080359060200190640100000000811115610d7d57600080fd5b820183602082011115610d8f57600080fd5b80359060200191846001830284011164010000000083111715610db157600080fd5b91908080601f016020809104026020016040519081016040528093929190818152602001838380828437600081840152601f19601f820116905080830192505050505050509192919290505050611cd1565b6040518082815260200191505060405180910390f35b610e216120db565b6040518080602001828103825283818151815260200191508051906020019060200280838360005b83811015610e64578082015181840152602081019050610e49565b505050509050019250505060405180910390f35b610ea460048036036020811015610e8e57600080fd5b8101908080359060200190929190505050612170565b6040518082815260200191505060405180910390f35b610ec2612197565b6040518082815260200191505060405180910390f35b6000806001805490508310610f55576040517f08c379a00000000000000000000000000000000000000000000000000000000081526004018080602001828103825260148152602001807f496e76616c6964205369676e617475726520494400000000000000000000000081525060200191505060405180910390fd5b60018381548110610f6257fe5b906000526020600020906003020160000160009054906101000a900473ffffffffffffffffffffffffffffffffffffffff1660018481548110610fa157fe5b90600052602060002090600302016002015491509150915091565b60006060600060608060606000805490508710611041576040517f08c379a00000000000000000000000000000000000000000000000000000000081526004018080602001828103825260148152602001807f496e76616c69642041747472696275746520494400000000000000000000000081525060200191505060405180910390fd5b6000878154811061104e57fe5b906000526020600020906006020160000160009054906101000a900473ffffffffffffffffffffffffffffffffffffffff166000888154811061108d57fe5b9060005260206000209060060201600101600089815481106110ab57fe5b906000526020600020906006020160020160009054906101000a900460ff1660008a815481106110d757fe5b906000526020600020906006020160030160008b815481106110f557fe5b906000526020600020906006020160040160008c8154811061111357fe5b9060005260206000209060060201600501848054600181600116156101000203166002900480601f0160208091040260200160405190810160405280929190818152602001828054600181600116156101000203166002900480156111b95780601f1061118e576101008083540402835291602001916111b9565b820191906000526020600020905b81548152906001019060200180831161119c57829003601f168201915b50505050509450828054600181600116156101000203166002900480601f0160208091040260200160405190810160405280929190818152602001828054600181600116156101000203166002900480156112555780601f1061122a57610100808354040283529160200191611255565b820191906000526020600020905b81548152906001019060200180831161123857829003601f168201915b50505050509250818054600181600116156101000203166002900480601f0160208091040260200160405190810160405280929190818152602001828054600181600116156101000203166002900480156112f15780601f106112c6576101008083540402835291602001916112f1565b820191906000526020600020905b8154815290600101906020018083116112d457829003601f168201915b50505050509150808054600181600116156101000203166002900480601f01602080910402602001604051908101604052809291908181526020018280546001816001161561010002031660029004801561138d5780601f106113625761010080835404028352916020019161138d565b820191906000526020600020905b81548152906001019060200180831161137057829003601f168201915b5050505050905095509550955095509550955091939550919395565b600560205281600052604060002081815481106113c257fe5b90600052602060002001600091509150505481565b60606004826040518082805190602001908083835b6020831061140f57805182526020820191506020810190506020830392506113ec565b6001836020036101000a038019825116818451168082178552505050505050905001915050908152602001604051809103902080548060200260200160405190810160405280929190818152602001828054801561148c57602002820191906000526020600020905b815481526020019060010190808311611478575b50505050509050919050565b6003818051602081018201805184825260208301602085012081835280955050505050506000915090505481565b60006002820290507f889dae1dc6cfc12f7d457fa8b2bc53b34ffb073a66725738b9b5dd461826eaa88282604051808381526020018281526020019250505060405180910390a1919050565b600482805160208101820180518482526020830160208501208183528095505050505050818154811061154157fe5b90600052602060002001600091509150505481565b600060018054905082106115d2576040517f08c379a00000000000000000000000000000000000000000000000000000000081526004018080602001828103825260148152602001807f496e76616c6964205369676e617475726520494400000000000000000000000081525060200191505060405180910390fd5b3373ffffffffffffffffffffffffffffffffffffffff16600183815481106115f657fe5b906000526020600020906003020160000160009054906101000a900473ffffffffffffffffffffffffffffffffffffffff1673ffffffffffffffffffffffffffffffffffffffff1614156116ae5760028054809190600101611658919061219d565b905060006002828154811061166957fe5b90600052602060002001905082816000018190555082827ff93d5095ac7696e643e1fa0aa35d622f4a13e11f4e199f30794679dcdcdb973760405160405180910390a3505b919050565b60008080549050831061172e576040517f08c379a00000000000000000000000000000000000000000000000000000000081526004018080602001828103825260148152602001807f496e76616c69642041747472696275746520494400000000000000000000000081525060200191505060405180910390fd5b6001805480919060010161174291906121c9565b905060006001828154811061175357fe5b90600052602060002090600302019050338160000160006101000a81548173ffffffffffffffffffffffffffffffffffffffff021916908373ffffffffffffffffffffffffffffffffffffffff16021790555083816001018190555082816002018190555060056000858152602001908152602001600020829080600181540180825580915050906001820390600052602060002001600090919290919091505550833373ffffffffffffffffffffffffffffffffffffffff16837f33a100675c6cfc265cebfab4d4b7a2f432674dd9f2b1f042546fad9dcaffe215866040518082815260200191505060405180910390a45092915050565b6001818154811061185957fe5b90600052602060002090600302016000915090508060000160009054906101000a900473ffffffffffffffffffffffffffffffffffffffff16908060010154908060020154905083565b600081815481106118b057fe5b90600052602060002090600602016000915090508060000160009054906101000a900473ffffffffffffffffffffffffffffffffffffffff1690806001018054600181600116156101000203166002900480601f0160208091040260200160405190810160405280929190818152602001828054600181600116156101000203166002900480156119825780601f1061195757610100808354040283529160200191611982565b820191906000526020600020905b81548152906001019060200180831161196557829003601f168201915b5050505050908060020160009054906101000a900460ff1690806003018054600181600116156101000203166002900480601f016020809104026020016040519081016040528092919081815260200182805460018160011615610100020316600290048015611a335780601f10611a0857610100808354040283529160200191611a33565b820191906000526020600020905b815481529060010190602001808311611a1657829003601f168201915b505050505090806004018054600181600116156101000203166002900480601f016020809104026020016040519081016040528092919081815260200182805460018160011615610100020316600290048015611ad15780601f10611aa657610100808354040283529160200191611ad1565b820191906000526020600020905b815481529060010190602001808311611ab457829003601f168201915b505050505090806005018054600181600116156101000203166002900480601f016020809104026020016040519081016040528092919081815260200182805460018160011615610100020316600290048015611b6f5780601f10611b4457610100808354040283529160200191611b6f565b820191906000526020600020905b815481529060010190602001808311611b5257829003601f168201915b5050505050905086565b60606000805490508210611bf5576040517f08c379a00000000000000000000000000000000000000000000000000000000081526004018080602001828103825260148152602001807f496e76616c69642041747472696275746520494400000000000000000000000081525060200191505060405180910390fd5b60056000838152602001908152602001600020805480602002602001604051908101604052809291908181526020018280548015611c5257602002820191906000526020600020905b815481526020019060010190808311611c3e575b50505050509050919050565b60006003826040518082805190602001908083835b60208310611c965780518252602082019150602081019050602083039250611c73565b6001836020036101000a0380198251168184511680821785525050505050509050019150509081526020016040518091039020549050919050565b6000808054809190600101611ce691906121fb565b90506000808281548110611cf657fe5b90600052602060002090600602019050338160000160006101000a81548173ffffffffffffffffffffffffffffffffffffffff021916908373ffffffffffffffffffffffffffffffffffffffff16021790555086816001019080519060200190611d6192919061222d565b50858160020160006101000a81548160ff02191690831515021790555084816003019080519060200190611d9692919061222d565b5083816004019080519060200190611daf92919061222d565b5082816005019080519060200190611dc892919061222d565b50816003866040518082805190602001908083835b60208310611e005780518252602082019150602081019050602083039250611ddd565b6001836020036101000a0380198251168184511680821785525050505050509050019150509081526020016040518091039020819055506004876040518082805190602001908083835b60208310611e6d5780518252602082019150602081019050602083039250611e4a565b6001836020036101000a03801982511681845116808217855250505050505090500191505090815260200160405180910390208290806001815401808255809150509060018203906000526020600020016000909192909190915055503373ffffffffffffffffffffffffffffffffffffffff16827feac81d43115f94d77295e1a87ba71b1eab990fb8e12645f1816531bb65da2cb1898989898960405180806020018615151515815260200180602001806020018060200185810385528a818151815260200191508051906020019080838360005b83811015611f5e578082015181840152602081019050611f43565b50505050905090810190601f168015611f8b5780820380516001836020036101000a031916815260200191505b50858103845288818151815260200191508051906020019080838360005b83811015611fc4578082015181840152602081019050611fa9565b50505050905090810190601f168015611ff15780820380516001836020036101000a031916815260200191505b50858103835287818151815260200191508051906020019080838360005b8381101561202a57808201518184015260208101905061200f565b50505050905090810190601f1680156120575780820380516001836020036101000a031916815260200191505b50858103825286818151815260200191508051906020019080838360005b83811015612090578082015181840152602081019050612075565b50505050905090810190601f1680156120bd5780820380516001836020036101000a031916815260200191505b50995050505050505050505060405180910390a35095945050505050565b6060806002805490506040519080825280602002602001820160405280156121125781602001602082028038833980820191505090505b50905060008090505b600280549050811015612168576002818154811061213557fe5b906000526020600020016000015482828151811061214f57fe5b602002602001018181525050808060010191505061211b565b508091505090565b6002818154811061217d57fe5b906000526020600020016000915090508060000154905081565b60065481565b8154818355818111156121c4578183600052602060002091820191016121c391906122ad565b5b505050565b8154818355818111156121f6576003028160030283600052602060002091820191016121f591906122d4565b5b505050565b81548183558181111561222857600602816006028360005260206000209182019101612227919061232a565b5b505050565b828054600181600116156101000203166002900490600052602060002090601f016020900481019282601f1061226e57805160ff191683800117855561229c565b8280016001018555821561229c579182015b8281111561229b578251825591602001919060010190612280565b5b5090506122a991906123c4565b5090565b6122d191905b808211156122cd57600080820160009055506001016122b3565b5090565b90565b61232791905b8082111561232357600080820160006101000a81549073ffffffffffffffffffffffffffffffffffffffff021916905560018201600090556002820160009055506003016122da565b5090565b90565b6123c191905b808211156123bd57600080820160006101000a81549073ffffffffffffffffffffffffffffffffffffffff021916905560018201600061237091906123e9565b6002820160006101000a81549060ff021916905560038201600061239491906123e9565b6004820160006123a491906123e9565b6005820160006123b491906123e9565b50600601612330565b5090565b90565b6123e691905b808211156123e25760008160009055506001016123ca565b5090565b90565b50805460018160011615610100020316600290046000825580601f1061240f575061242e565b601f01602090049060005260206000209081019061242d91906123c4565b5b5056fea265627a7a72315820c259121cf6abf77db6f3cb7ba0b919c3749819892d5e46b779afdea77f8e605f64736f6c63430005100032",
  "source": "pragma solidity >=0.4.25 <0.6.0;\n// pragma experimental ABIEncoderV2;\n\ncontract Trustful {\n    struct Attribute {\n        address owner;\n        string attributeType;\n        bool hasProof;\n        string identifier;\n        string data;\n        string datahash;\n    }\n\n    struct Signature {\n        address signer;\n        uint attributeID;\n        uint expiry;\n    }\n\n    struct Revocation {\n        uint signatureID;\n    }\n\n    Attribute[] public attributes;\n    Signature[] public signatures;\n    Revocation[] public revocations;\n\n    mapping(string => uint) public AttributeByIdentier;\n    mapping(string => uint[]) public AttributeTypes;\n    mapping(uint => uint[]) public signaturesOfAttribute;\n    // mapping(uint => uint[]) public revocationsOfAttribute;\n\n    uint public test = 1234;\n\n    event AttributeAdded(uint indexed attributeID, address indexed owner, string attributeType, bool hasProof, string identifier, string data, string datahash);\n    event AttributeSigned(uint indexed signatureID, address indexed signer, uint indexed attributeID, uint expiry);\n    event SignatureRevoked(uint indexed revocationID, uint indexed signatureID);\n    event Successful(uint randomInt, uint square);\n\n\n    function getAttributeByID(uint attributeID) public view returns(address, string memory, bool, string memory, string memory, string memory) {\n        require(attributeID < attributes.length, \"Invalid Attribute ID\");\n        return (attributes[attributeID].owner, attributes[attributeID].attributeType, attributes[attributeID].hasProof, attributes[attributeID].identifier, attributes[attributeID].data, attributes[attributeID].datahash);\n    }\n    function getAttributesByType(string memory attributeType) public view returns(uint[] memory) {\n        return AttributeTypes[attributeType];\n    }\n    function getAttributesByIdentifier(string memory identifier) public view returns(uint) {\n        return AttributeByIdentier[identifier];\n    }\n\n    // function getAttributes() public view returns(Attribute[] memory) {\n    //     return attributes;\n    // }\n\n    function getSignaturesOfAttribute(uint attributeID) public view returns (uint[] memory) {\n        require(attributeID < attributes.length, \"Invalid Attribute ID\");\n        return signaturesOfAttribute[attributeID];\n    }\n    function getSignature(uint signatureID) public view returns(address, uint) {\n        require(signatureID < signatures.length, \"Invalid Signature ID\");\n        return (signatures[signatureID].signer, signatures[signatureID].expiry);\n    }\n    function getAllRevocations() public view returns(uint[] memory ) {\n        // uint[] storage signatureIDs;\n        uint[] memory signatureIDs = new uint[](revocations.length);\n        for (uint index = 0; index < revocations.length; index++) {\n            signatureIDs[index] = revocations[index].signatureID;\n        }\n        return signatureIDs;\n    }\n\n    function addAttribute(string memory attributeType, bool hasProof, string memory identifier, string memory data, string memory datahash) public returns (uint attributeID) {\n        attributeID = attributes.length++;\n        Attribute storage attribute = attributes[attributeID];\n        attribute.owner = msg.sender;\n        attribute.attributeType = attributeType;\n        attribute.hasProof = hasProof;\n        attribute.identifier = identifier;\n        attribute.data = data;\n        attribute.datahash = datahash;\n        AttributeByIdentier[identifier] = attributeID;\n        AttributeTypes[attributeType].push(attributeID);\n        emit AttributeAdded(attributeID, msg.sender, attributeType, hasProof, identifier, data, datahash);\n    }\n\n    function signAttribute(uint attributeID, uint expiry) public returns (uint signatureID) {\n        require(attributeID < attributes.length, \"Invalid Attribute ID\");\n        signatureID = signatures.length++;\n        Signature storage signature = signatures[signatureID];\n        signature.signer = msg.sender;\n        signature.attributeID = attributeID;\n        signature.expiry = expiry;\n        signaturesOfAttribute[attributeID].push(signatureID);\n        emit AttributeSigned(signatureID, msg.sender, attributeID, expiry);\n    }\n\n    function revokeSignature(uint signatureID) public returns (uint revocationID) {\n        require(signatureID < signatures.length, \"Invalid Signature ID\");\n        if (signatures[signatureID].signer == msg.sender) {\n            revocationID = revocations.length++;\n            Revocation storage revocation = revocations[revocationID];\n            revocation.signatureID = signatureID;\n\n            emit SignatureRevoked(revocationID, signatureID);\n        }\n    }\n\n    function testFunction(uint randomInt) public returns (uint square) {\n        square = randomInt*2;\n        emit Successful(randomInt, square);\n    }\n}",
  "sourcePath": "/Users/siddharthbarpanda/Desktop/trustful/contracts/Trustful.sol",
  "compiler": {
    "name": "solc",
    "version": "0.5.16+commit.9c3226ce.Emscripten.clang"
  },
  "schemaVersion": "3.2.0",
  "updatedAt": "2020-06-05T18:54:25.017Z",
  "networkType": "ethereum",
  "devdoc": {
    "methods": {}
  },
  "userdoc": {
    "methods": {}
  }
}